{
  "contractName": "ERC223",
  "abi": [
    {
      "anonymous": false,
      "inputs": [
        {
          "indexed": true,
          "internalType": "address",
          "name": "from",
          "type": "address"
        },
        {
          "indexed": true,
          "internalType": "address",
          "name": "to",
          "type": "address"
        },
        {
          "indexed": false,
          "internalType": "uint256",
          "name": "value",
          "type": "uint256"
        },
        {
          "indexed": false,
          "internalType": "bytes",
          "name": "data",
          "type": "bytes"
        }
      ],
      "name": "Transfer",
      "type": "event"
    },
    {
      "constant": true,
      "inputs": [],
      "name": "_totalSupply",
      "outputs": [
        {
          "internalType": "uint256",
          "name": "",
          "type": "uint256"
        }
      ],
      "payable": false,
      "stateMutability": "view",
      "type": "function"
    },
    {
      "constant": true,
      "inputs": [],
      "name": "totalSupply",
      "outputs": [
        {
          "internalType": "uint256",
          "name": "",
          "type": "uint256"
        }
      ],
      "payable": false,
      "stateMutability": "view",
      "type": "function"
    },
    {
      "constant": false,
      "inputs": [
        {
          "internalType": "address",
          "name": "_to",
          "type": "address"
        },
        {
          "internalType": "uint256",
          "name": "_value",
          "type": "uint256"
        }
      ],
      "name": "transfer",
      "outputs": [
        {
          "internalType": "bool",
          "name": "success",
          "type": "bool"
        }
      ],
      "payable": false,
      "stateMutability": "nonpayable",
      "type": "function"
    },
    {
      "constant": false,
      "inputs": [
        {
          "internalType": "address",
          "name": "_to",
          "type": "address"
        },
        {
          "internalType": "uint256",
          "name": "_value",
          "type": "uint256"
        },
        {
          "internalType": "bytes",
          "name": "_data",
          "type": "bytes"
        }
      ],
      "name": "transfer",
      "outputs": [
        {
          "internalType": "bool",
          "name": "success",
          "type": "bool"
        }
      ],
      "payable": false,
      "stateMutability": "nonpayable",
      "type": "function"
    },
    {
      "constant": true,
      "inputs": [
        {
          "internalType": "address",
          "name": "_owner",
          "type": "address"
        }
      ],
      "name": "balanceOf",
      "outputs": [
        {
          "internalType": "uint256",
          "name": "balance",
          "type": "uint256"
        }
      ],
      "payable": false,
      "stateMutability": "view",
      "type": "function"
    }
  ],
  "bytecode": "0x608060405234801561001057600080fd5b50610b2c806100206000396000f3fe608060405234801561001057600080fd5b50600436106100575760003560e01c806318160ddd1461005c5780633eaaf86b1461007a57806370a0823114610098578063a9059cbb146100f0578063be45fd6214610156575b600080fd5b610064610253565b6040518082815260200191505060405180910390f35b61008261025c565b6040518082815260200191505060405180910390f35b6100da600480360360208110156100ae57600080fd5b81019080803573ffffffffffffffffffffffffffffffffffffffff169060200190929190505050610262565b6040518082815260200191505060405180910390f35b61013c6004803603604081101561010657600080fd5b81019080803573ffffffffffffffffffffffffffffffffffffffff169060200190929190803590602001909291905050506102ab565b604051808215151515815260200191505060405180910390f35b6102396004803603606081101561016c57600080fd5b81019080803573ffffffffffffffffffffffffffffffffffffffff16906020019092919080359060200190929190803590602001906401000000008111156101b357600080fd5b8201836020820111156101c557600080fd5b803590602001918460018302840111640100000000831117156101e757600080fd5b91908080601f016020809104026020016040519081016040528093929190818152602001838380828437600081840152601f19601f8201169050808301925050505050505091929192905050506105f0565b604051808215151515815260200191505060405180910390f35b60008054905090565b60005481565b6000600160008373ffffffffffffffffffffffffffffffffffffffff1673ffffffffffffffffffffffffffffffffffffffff168152602001908152602001600020549050919050565b600060606040518060400160405280600481526020016000815250905061031a83600160003373ffffffffffffffffffffffffffffffffffffffff1673ffffffffffffffffffffffffffffffffffffffff1681526020019081526020016000205461091a90919063ffffffff16565b600160003373ffffffffffffffffffffffffffffffffffffffff1673ffffffffffffffffffffffffffffffffffffffff168152602001908152602001600020819055506103af83600160008773ffffffffffffffffffffffffffffffffffffffff1673ffffffffffffffffffffffffffffffffffffffff1681526020019081526020016000205461096490919063ffffffff16565b600160008673ffffffffffffffffffffffffffffffffffffffff1673ffffffffffffffffffffffffffffffffffffffff168152602001908152602001600020819055506103fb846109ec565b156105135760008490508073ffffffffffffffffffffffffffffffffffffffff1663c0ee0b8a3386856040518463ffffffff1660e01b8152600401808473ffffffffffffffffffffffffffffffffffffffff1673ffffffffffffffffffffffffffffffffffffffff16815260200183815260200180602001828103825283818151815260200191508051906020019080838360005b838110156104ab578082015181840152602081019050610490565b50505050905090810190601f1680156104d85780820380516001836020036101000a031916815260200191505b50945050505050600060405180830381600087803b1580156104f957600080fd5b505af115801561050d573d6000803e3d6000fd5b50505050505b8373ffffffffffffffffffffffffffffffffffffffff163373ffffffffffffffffffffffffffffffffffffffff167fe19260aff97b920c7df27010903aeb9c8d2be5d310a2c67824cf3f15396e4c1685846040518083815260200180602001828103825283818151815260200191508051906020019080838360005b838110156105aa57808201518184015260208101905061058f565b50505050905090810190601f1680156105d75780820380516001836020036101000a031916815260200191505b50935050505060405180910390a3600191505092915050565b600061064483600160003373ffffffffffffffffffffffffffffffffffffffff1673ffffffffffffffffffffffffffffffffffffffff1681526020019081526020016000205461091a90919063ffffffff16565b600160003373ffffffffffffffffffffffffffffffffffffffff1673ffffffffffffffffffffffffffffffffffffffff168152602001908152602001600020819055506106d983600160008773ffffffffffffffffffffffffffffffffffffffff1673ffffffffffffffffffffffffffffffffffffffff1681526020019081526020016000205461096490919063ffffffff16565b600160008673ffffffffffffffffffffffffffffffffffffffff1673ffffffffffffffffffffffffffffffffffffffff16815260200190815260200160002081905550610725846109ec565b1561083d5760008490508073ffffffffffffffffffffffffffffffffffffffff1663c0ee0b8a3386866040518463ffffffff1660e01b8152600401808473ffffffffffffffffffffffffffffffffffffffff1673ffffffffffffffffffffffffffffffffffffffff16815260200183815260200180602001828103825283818151815260200191508051906020019080838360005b838110156107d55780820151818401526020810190506107ba565b50505050905090810190601f1680156108025780820380516001836020036101000a031916815260200191505b50945050505050600060405180830381600087803b15801561082357600080fd5b505af1158015610837573d6000803e3d6000fd5b50505050505b8373ffffffffffffffffffffffffffffffffffffffff163373ffffffffffffffffffffffffffffffffffffffff167fe19260aff97b920c7df27010903aeb9c8d2be5d310a2c67824cf3f15396e4c1685856040518083815260200180602001828103825283818151815260200191508051906020019080838360005b838110156108d45780820151818401526020810190506108b9565b50505050905090810190601f1680156109015780820380516001836020036101000a031916815260200191505b50935050505060405180910390a3600190509392505050565b600061095c83836040518060400160405280601e81526020017f536166654d6174683a207375627472616374696f6e206f766572666c6f770000815250610a37565b905092915050565b6000808284019050838110156109e2576040517f08c379a000000000000000000000000000000000000000000000000000000000815260040180806020018281038252601b8152602001807f536166654d6174683a206164646974696f6e206f766572666c6f77000000000081525060200191505060405180910390fd5b8091505092915050565b60008060007fc5d2460186f7233c927e7db2dcc703c0e500b653ca82273b7bfad8045d85a47060001b9050833f91506000801b8214158015610a2e5750808214155b92505050919050565b6000838311158290610ae4576040517f08c379a00000000000000000000000000000000000000000000000000000000081526004018080602001828103825283818151815260200191508051906020019080838360005b83811015610aa9578082015181840152602081019050610a8e565b50505050905090810190601f168015610ad65780820380516001836020036101000a031916815260200191505b509250505060405180910390fd5b506000838503905080915050939250505056fea265627a7a723158201a6bac1132b46fb02c333f77d87757bddfaa80e47f53debe1806e742a10dc4e364736f6c634300050d0032",
  "source": "pragma solidity ^0.5.1;\r\n\r\nimport \"./IERC223.sol\";\r\nimport \"./IERC223Recipient.sol\";\r\nimport \"../SafeMath.sol\";\r\nimport \"../Address.sol\";\r\n\r\n/**\r\n * @title Reference implementation of the ERC223 standard token.\r\n */\r\ncontract ERC223 is IERC223 {\r\n    using SafeMath for uint;\r\n\r\n    /**\r\n     * @dev See `IERC223.totalSupply`.\r\n     */\r\n    function totalSupply() public view returns (uint256) {\r\n        return _totalSupply;\r\n    }\r\n\r\n    mapping(address => uint) balances; // List of user balances.\r\n    \r\n    /**\r\n     * @dev Transfer the specified amount of tokens to the specified address.\r\n     *      Invokes the `tokenFallback` function if the recipient is a contract.\r\n     *      The token transfer fails if the recipient is a contract\r\n     *      but does not implement the `tokenFallback` function\r\n     *      or the fallback function to receive funds.\r\n     *\r\n     * @param _to    Receiver address.\r\n     * @param _value Amount of tokens that will be transferred.\r\n     * @param _data  Transaction metadata.\r\n     */\r\n    function transfer(address _to, uint _value, bytes memory _data) public returns (bool success){\r\n        // Standard function transfer similar to ERC20 transfer with no _data .\r\n        // Added due to backwards compatibility reasons .\r\n        balances[msg.sender] = balances[msg.sender].sub(_value);\r\n        balances[_to] = balances[_to].add(_value);\r\n        if(Address.isContract(_to)) {\r\n            IERC223Recipient receiver = IERC223Recipient(_to);\r\n            receiver.tokenFallback(msg.sender, _value, _data);\r\n        }\r\n        emit Transfer(msg.sender, _to, _value, _data);\r\n        return true;\r\n    }\r\n    \r\n    /**\r\n     * @dev Transfer the specified amount of tokens to the specified address.\r\n     *      This function works the same with the previous one\r\n     *      but doesn't contain `_data` param.\r\n     *      Added due to backwards compatibility reasons.\r\n     *\r\n     * @param _to    Receiver address.\r\n     * @param _value Amount of tokens that will be transferred.\r\n     */\r\n    function transfer(address _to, uint _value) public returns (bool success){\r\n        bytes memory empty = hex\"00000000\";\r\n        balances[msg.sender] = balances[msg.sender].sub(_value);\r\n        balances[_to] = balances[_to].add(_value);\r\n        if(Address.isContract(_to)) {\r\n            IERC223Recipient receiver = IERC223Recipient(_to);\r\n            receiver.tokenFallback(msg.sender, _value, empty);\r\n        }\r\n        emit Transfer(msg.sender, _to, _value, empty);\r\n        return true;\r\n    }\r\n\r\n    \r\n    /**\r\n     * @dev Returns balance of the `_owner`.\r\n     *\r\n     * @param _owner   The address whose balance will be returned.\r\n     * @return balance Balance of the `_owner`.\r\n     */\r\n    function balanceOf(address _owner) public view returns (uint balance) {\r\n        return balances[_owner];\r\n    }\r\n}\r\n",
  "sourcePath": "C:\\Users\\franc\\Documents\\ESILV\\A5\\Blockchain Prog\\TD2\\main\\contracts\\ERC223\\ERC223.sol",
  "compiler": {
    "name": "solc",
    "version": "0.5.13+commit.5b0b510c.Emscripten.clang"
  },
  "schemaVersion": "3.0.11",
  "updatedAt": "2019-11-26T17:52:37.903Z",
  "devdoc": {
    "methods": {
      "balanceOf(address)": {
        "details": "Returns balance of the `_owner`. ",
        "params": {
          "_owner": "The address whose balance will be returned."
        },
        "return": "balance Balance of the `_owner`."
      },
      "totalSupply()": {
        "details": "See `IERC223.totalSupply`."
      },
      "transfer(address,uint256)": {
        "details": "Transfer the specified amount of tokens to the specified address.     This function works the same with the previous one     but doesn't contain `_data` param.     Added due to backwards compatibility reasons. ",
        "params": {
          "_to": "Receiver address.",
          "_value": "Amount of tokens that will be transferred."
        }
      },
      "transfer(address,uint256,bytes)": {
        "details": "Transfer the specified amount of tokens to the specified address.     Invokes the `tokenFallback` function if the recipient is a contract.     The token transfer fails if the recipient is a contract     but does not implement the `tokenFallback` function     or the fallback function to receive funds. ",
        "params": {
          "_data": "Transaction metadata.",
          "_to": "Receiver address.",
          "_value": "Amount of tokens that will be transferred."
        }
      }
    },
    "title": "Reference implementation of the ERC223 standard token."
  },
  "userdoc": {
    "methods": {}
  }
}